:020000040800F2
:100000000000022025450008C1440008C74400083C
:10001000CD440008D3440008D94400080000000083
:1000200000000000000000000000000021070008A0
:10003000DF44000800000000710A0008D90A000827
:1000400075450008754500087545000875450008A8
:100050007545000875450008754500087545000898
:100060007545000875450008754500087545000888
:100070007545000875450008754500087545000878
:100080007545000875450008754500087545000868
:100090007545000875450008754500087545000858
:1000A0007545000875450008754500087545000848
:1000B0007545000875450008754500087545000838
:1000C0007545000875450008754500087545000828
:1000D0007545000875450008A51C00087545000811
:1000E0007545000875450008754500087545000808
:1000F00075450008754500087545000875450008F8
:1001000075450008754500087545000875450008E7
:100110007545000875450008ED4400087545000860
:1001200075450008754500087545000875450008C7
:1001300075450008754500087545000875450008B7
:1001400075450008754500087545000875450008A7
:100150007545000875450008754500087545000897
:100160007545000875450008754500087545000887
:100170007545000875450008754500080000000039
:080180007545000875450008F3
:1001900010B5054C237833B9044B13B10448AFF3C1
:1001A00000800123237010BD1C000020000000000F
:1001B000045B000808B5034B1BB103490348AFF3C8
:1001C000008008BD0000000020000020045B000843
:1001D000F0B400EB4003DFF8880000EBC30000F14F
:1001E00018063069F7687568874232D3B368DC1B3C
:1001F000631E934214D37D19D01900BF11F8013B3F
:1002000005F8013B013A05D011F8013B05F8013B27
:10021000013AF3D1BFF35F8FF0600120F0BC70476B
:10022000C018904219D37819121B11F8013B00F83D
:10023000013B013CF9D1141C05D011F8013B05F834
:10024000013B013AF9D1BFF35F8FF4600120F0BCAC
:100250007047C01B01389042CDD20020F0BC7047DF
:10026000102E012053B94AB9002908BF00281CBF2D
:100270004FF0FF314FF0FF3000F074B9ADF1080CD2
:100280006DE904CE00F006F8DDF804E0DDE90223B4
:1002900004B070472DE9F047089D04468E46002BB8
:1002A0004DD18A42944669D9B2FA82F252B101FA2A
:1002B00002F3C2F1200120FA01F10CFA02FC41EA3A
:1002C000030E94404FEA1C48210CBEFBF8F61FFABF
:1002D0008CF708FB16E341EA034306FB07F199425A
:1002E0000AD91CEB030306F1FF3080F01F8199420D
:1002F00040F21C81023E63445B1AA4B2B3FBF8F0E7
:1003000008FB103344EA034400FB07F7A7420AD96D
:100310001CEB040400F1FF3380F00A81A74240F295
:1003200007816444023840EA0640E41B00261DB100
:10033000D4400023C5E900433146BDE8F0878B4235
:1003400009D9002D00F0EF800026C5E900013046F4
:100350003146BDE8F087B3FA83F6002E4AD18B42CE
:1003600002D3824200F2F980841A61EB0303012078
:100370009E46002DE0D0C5E9004EDDE702B9FFDE64
:10038000B2FA82F2002A40F09280A1EB0C014FEA0F
:100390001C471FFA8CFE0126200CB1FBF7F307FB6C
:1003A000131140EA01410EFB03F0884208D91CEB0F
:1003B000010103F1FF3802D2884200F2CB804346AC
:1003C000091AA4B2B1FBF7F007FB101144EA01448B
:1003D0000EFB00FEA64508D91CEB040400F1FF311A
:1003E00002D2A64500F2BB800846A4EB0E0440EA08
:1003F00003409CE7C6F12007B34022FA07FC4CEA11
:10040000030C20FA07F401FA06F31C43F9404FEA03
:100410001C4900FA06F3B1FBF9F8200C1FFA8CFE18
:1004200009FB181140EA014108FB0EF0884202FA6C
:1004300006F20BD91CEB010108F1FF3A80F088802D
:10044000884240F28580A8F102086144091AA4B2EA
:10045000B1FBF9F009FB101144EA014100FB0EFE6B
:100460008E4508D91CEB010100F1FF346CD28E459A
:100470006AD90238614440EA0840A0FB0294A1EB2B
:100480000E01A142C846A64656D353D05DB1B3EB88
:10049000080261EB0E0101FA07F722FA06F3F140B8
:1004A0001F43C5E9007100263146BDE8F087C2F15F
:1004B0002003D8400CFA02FC21FA03F391400143D7
:1004C0004FEA1C471FFA8CFEB3FBF7F007FB103610
:1004D0000B0C43EA064300FB0EF69E4204FA02F4BC
:1004E00008D91CEB030300F1FF382FD29E422DD90F
:1004F000023863449B1B89B2B3FBF7F607FB163344
:1005000041EA034106FB0EF38B4208D91CEB0101C3
:1005100006F1FF3816D28B4214D9023E6144C91A43
:1005200046EA004638E72E46284605E70646E3E653
:100530001846F8E64B45A9D2B9EB020864EB0C0E5D
:100540000138A3E74646EAE7204694E74046D1E76C
:10055000D0467BE7023B614432E7304609E764441A
:10056000023842E7704700BF80B483B000AF7860C4
:100570007B6803F108027B685A607B684FF0FF32AA
:100580009A607B6803F108027B68DA607B6803F19C
:1005900008027B681A617B6800221A6000BF0C3772
:1005A000BD465DF8047B704780B483B000AF7860CF
:1005B0007B6800221A6100BF0C37BD465DF8047BE2
:1005C000704780B485B000AF786039607B685B6845
:1005D000FB603B68FA685A60FB689A683B689A60FF
:1005E000FB689B683A685A60FB683A689A603B68A7
:1005F0007A681A617B681B685A1C7B681A6000BFA6
:100600001437BD465DF8047B704780B485B000AFF9
:1006100078607B681B69FB607B685B687A689268BE
:100620009A607B689B687A6852685A60FB685B686E
:100630007A689A4203D17B689A68FB685A607B6843
:1006400000221A61FB681B685A1EFB681A60FB686F
:100650001B6818461437BD465DF8047B70470000E0
:1006600080B485B000AFF860B9607A60FB68043B85
:10067000FB60FB684FF080721A60FB68043BFB6014
:10068000BB6823F00102FB681A60FB68043BFB6057
:100690000C4AFB681A60FB68143BFB607A68FB68D5
:1006A0001A60FB68043BFB60FB686FF002021A6093
:1006B000FB68203BFB60FB6818461437BD465DF8BD
:1006C000047B7047C906000880B485B000AF0023E2
:1006D0007B60124B1B68B3F1FF3F0AD04FF0500311
:1006E00083F31188BFF36F8FBFF34F8FFB6000BFA1
:1006F000FEE74FF0500383F31188BFF36F8FBFF312
:100700004F8FBB6000BF00BF7B68002BFCD000BFD9
:1007100000BF1437BD465DF8047B70470000002021
:10072000074B19680868B0E8F04F80F30988BFF3F9
:100730006F8F4FF0000080F311887047AFF3008097
:10074000602C012000BF00BF08480068006880F3EB
:1007500008884FF0000080F3148862B661B6BFF3DA
:100760004F8FBFF36F8F00DF00BF000008ED00E088
:1007700000BF00BF80B586B000AF464B1B68464A3D
:1007800093420AD14FF0500383F31188BFF36F8F68
:10079000BFF34F8F3B6100BFFEE73E4B1B683F4AF4
:1007A00093420AD14FF0500383F31188BFF36F8F48
:1007B000BFF34F8FFB6000BFFEE7394B7B617B6966
:1007C0001B78DBB27B607B69FF221A707B691B7828
:1007D000DBB2FB70FB78DBB203F05003DAB2314BD3
:1007E0001A70314B07221A6009E02F4B1B68013B3E
:1007F0002D4A1360FB78DBB25B00DBB2FB70FB7849
:10080000DBB203F08003802BEFD0274B1B68C3F1D2
:100810000703042B0AD04FF0500383F31188BFF372
:100820006F8FBFF34F8FBB6000BFFEE71E4B1B688F
:100830001B021D4A13601C4B1B6803F4E0631A4A39
:1008400013607B68DAB27B691A70184B1B68174A11
:1008500043F470031360154B1B68144A43F0704354
:10086000136000F063F9124B00221A6000F082F965
:10087000104B1B680F4A43F040431360FFF764FFBF
:1008800000F0FEFEFFF720FF002318461837BD4694
:1008900080BD00BF00ED00E071C20F4170C20F418A
:1008A00000E400E0380000203C00002020ED00E0E3
:1008B0000000002034EF00E080B487B000AF374B79
:1008C0001B68374A93420AD14FF0500383F31188D3
:1008D000BFF36F8FBFF34F8F3B6100BFFEE72F4B1E
:1008E0001B68304A93420AD14FF0500383F31188BA
:1008F000BFF36F8FBFF34F8FFB6000BFFEE72A4B44
:100900007B617B691B78DBB27B607B69FF221A709D
:100910007B691B78DBB2FB70FB78DBB203F0500322
:10092000DAB2224B1A70224B07221A6009E0204BE0
:100930001B68013B1E4A1360FB78DBB25B00DBB235
:10094000FB70FB78DBB203F08003802BEFD0184BF9
:100950001B68C3F10703042B0AD04FF0500383F345
:100960001188BFF36F8FBFF34F8FBB6000BFFEE7EF
:100970000F4B1B681B020E4A13600D4B1B6803F4E0
:10098000E0630B4A13607B68DAB27B691A7000BFC0
:100990001C37BD465DF8047B704700BF00ED00E0EA
:1009A00071C20F4170C20F4100E400E03800002026
:1009B0003C00002080B483B000AF4FF0500383F3BD
:1009C0001188BFF36F8FBFF34F8F7B6000BF0F4B5A
:1009D0001B6801330D4A13600C4B1B68012B0FD1B0
:1009E0000B4B1B68DBB2002B0AD04FF0500383F394
:1009F0001188BFF36F8FBFF34F8F3B6000BFFEE7DF
:100A000000BF0C37BD465DF8047B70470000002036
:100A100004ED00E080B483B000AF124B1B68002BE4
:100A20000AD14FF0500383F31188BFF36F8FBFF3E8
:100A30004F8F7B6000BFFEE70A4B1B68013B094AF2
:100A40001360084B1B68002B05D100233B603B68FB
:100A500083F3118800BF00BF0C37BD465DF8047BEF
:100A6000704700BF000000200000000000000000F0
:100A7000EFF30980BFF36F8F154B1A681EF0100F4C
:100A800008BF20ED108A20E9F04F10602DE9090021
:100A90004FF0500080F31188BFF34F8FBFF36F8F7B
:100AA00000F0EEFD4FF0000080F3118809BC1968DA
:100AB0000868B0E8F04F1EF0100F08BFB0EC108AC5
:100AC00080F30988BFF36F8F704700BFAFF30080DA
:100AD000602C012000BF00BF80B582B000AF4FF096
:100AE000500383F31188BFF36F8FBFF34F8F7B6089
:100AF00000BF02F0D5FE00F007FD0346002B06D034
:100B000002F02CFF084B4FF080521A6001E002F017
:100B100009FF00233B603B6883F3118800BF00BFDF
:100B20000837BD4680BD00BF04ED00E080B400AFD3
:100B30000B4B00221A600B4B00221A600A4B1B68F9
:100B40000A4AA2FB03239B09094A013B1360044B99
:100B500007221A6000BFBD465DF8047B704700BFE6
:100B600010E000E018E000E010000020D34D62101B
:100B700014E000E0DFF80C00016841F4700101604E
:100B80007047000088ED00E000BF00BF80B485B072
:100B900000AFEFF30583FB60FB680F2B14D9174AF6
:100BA000FB6813441B78FB72154B1B78FA7A9A4248
:100BB0000AD24FF0500383F31188BFF36F8FBFF356
:100BC0004F8F7B6000BFFEE70E4B1B6803F4E062B3
:100BD0000D4B1B689A420AD94FF0500383F31188DA
:100BE000BFF36F8FBFF34F8F3B6000BFFEE700BFC7
:100BF0001437BD465DF8047B704700BFF0E300E0AA
:100C0000380000200CED00E03C00002080B58AB0E8
:100C100000AF78600023FB6100F0B6FB654B1B68FA
:100C2000002B01D100F034F9634B1A687B68134044
:100C3000002B40F0A7807B68002B2DD008227B681A
:100C400013447A689A4227D208227B6813447B6057
:100C50007B6803F00703002B21D07B6823F0070398
:100C600008337A689A4214D27B6823F0070308336A
:100C70007B607B6803F00703002B10D04FF050031C
:100C800083F31188BFF36F8FBFF34F8F7B6100BF7A
:100C9000FEE700237B6002E000237B6000E000BFF2
:100CA0007B68002B6ED0454B1B687A689A4269D8E6
:100CB000434B3B62424B1B687B6204E07B6A3B62B6
:100CC0007B6A1B687B627B6A5B687A689A4203D99D
:100CD0007B6A1B68002BF1D1364B1B687A6A9A42FB
:100CE00050D03B6A1B6808221344FB617B6A1A6878
:100CF0003B6A1A607B6A5A687B68D21A08235B00D9
:100D00009A421FD97A6A7B681344BB61BB6903F0BE
:100D10000703002B0AD04FF0500383F31188BFF371
:100D20006F8FBFF34F8F3B6100BFFEE77B6A5A684E
:100D30007B68D21ABB695A607B6A7A685A60B86964
:100D400000F008F91D4B1A687B6A5B68D31A1B4ACE
:100D500013601A4B1A681B4B1B689A4203D2174B3D
:100D60001B68184A13607B6A5A68134B1B681A4346
:100D70007B6A5A607B6A00221A60134B1B6801333E
:100D8000114A136000F00EFBFB6903F00703002B10
:100D90000AD04FF0500383F31188BFF36F8FBFF376
:100DA0004F8FFB6000BFFEE7FB6918462837BD4642
:100DB00080BD00BF482C01205C2C01204C2C012060
:100DC000402C0120502C0120542C012080B586B0ED
:100DD00000AF78607B687B617B68002B4DD0082377
:100DE0005B427A6913447B617B693B613B695A686A
:100DF000244B1B681340002B0AD14FF0500383F3A0
:100E00001188BFF36F8FBFF34F8FFB6000BFFEE70A
:100E10003B691B68002B0AD04FF0500383F3118805
:100E2000BFF36F8FBFF34F8FBB6000BFFEE73B691F
:100E30005A68144B1B681340002B1ED03B691B687B
:100E4000002B1AD13B695A680E4B1B68DB431A40D2
:100E50003B695A6000F098FA3B695A680A4B1B6874
:100E60001344094A1360386900F074F8074B1B6893
:100E70000133064A136000F095FA00BF1837BD46EB
:100E800080BD00BF5C2C01204C2C0120582C01207F
:100E900080B485B000AF4FF49633BB60274BFB6046
:100EA000FB6803F00703002B0CD0FB680733FB60E3
:100EB000FB6823F00703FB60BA68FB68D31A1F4A7C
:100EC0001344BB60FB687B601D4A7B6813601C4B4E
:100ED00000225A607B68BA681344FB600822FB68F2
:100EE0009B1AFB60FB6823F00703FB60FB68154A55
:100EF0001360144B1B6800225A60124B1B680022BF
:100F00001A607B683B603B68FA68D21A3B685A609B
:100F10000C4B1A683B681A603B685B680A4A1360AE
:100F20003B685B68094A1360094B4FF000421A6046
:100F300000BF1437BD465DF8047B704740000020B9
:100F4000402C0120482C0120502C01204C2C012049
:100F50005C2C012080B485B000AF7860284BFB602A
:100F600002E0FB681B68FB60FB681B687A689A42BA
:100F7000F7D8FB68BB60FB685B68BA6813447A68A3
:100F80009A4208D1FB685A687B685B681A44FB6820
:100F90005A60FB687B607B68BB607B685B68BA6893
:100FA0001A44FB681B689A4218D1FB681A68154BF3
:100FB0001B689A420DD07B685A68FB681B685B68A7
:100FC0001A447B685A60FB681B681A687B681A6061
:100FD00008E00C4B1A687B681A6003E0FB681A682B
:100FE0007B681A60FA687B689A4202D0FB687A686C
:100FF0001A6000BF1437BD465DF8047B704700BF20
:10100000402C0120482C012080B58CB004AFF86042
:10101000B9603B601346FB80FB889B001846FFF7D6
:10102000F5FD78617B69002B0ED05820FFF7EEFDAF
:10103000F861FB69002B03D0FB697A691A6305E04C
:101040007869FFF7C3FE01E00023FB61FB69002B19
:1010500013D0FA8800230393FB690293FB6A019380
:10106000BB6A00933B68B968F86800F00EF8F8694D
:1010700000F0A2F80123BB6102E04FF0FF33BB6137
:10108000BB6918462037BD4680BD80B588B000AF2B
:10109000F860B9607A603B603B6B186B7B689B00C3
:1010A0001A46A52104F026FD3B6B1A6B7B6803F101
:1010B0008043013B9B001344BB61BB6923F00703E2
:1010C000BB61BB6903F00703002B0AD04FF050034C
:1010D00083F31188BFF36F8FBFF34F8F7B6100BF26
:1010E000FEE7BB68002B1FD00023FB6112E0BA684B
:1010F000FB69134419783A6BFB69134434330A468D
:101100001A70BA68FB6913441B78002B06D0FB6980
:101110000133FB61FB69092BE9D900E000BF3B6BA0
:10112000002283F83D2003E03B6B002283F834204B
:10113000BB6A042B01D90423BB623B6BBA6ADA6237
:101140003B6BBA6A9A643B6B0022DA643B6B0433F4
:101150001846FFF729FA3B6B18331846FFF724FAB5
:101160003B6B3A6B1A61BB6AC3F105023B6B9A6138
:101170003B6B3A6B5A623B6B50330422002118469A
:1011800004F0B8FC3B6B543301220021184604F0F4
:10119000B1FC3A68F968B869FFF762FA02463B6B3E
:1011A0001A60FB6A002B02D0FB6A3A6B1A6000BF20
:1011B0002037BD4680BD0000B0B584B002AF786076
:1011C000FFF7F8FB3B4B1B6801333A4A13603A4B7D
:1011D0001B68002B09D1384A7B681360354B1B68AC
:1011E000012B10D100F0CEFA0DE0344B1B68002B20
:1011F00009D1314B1B68DA6A7B68DB6A9A4202D8F4
:101200002D4A7B6813602E4B1B6801332C4A1360F8
:101210002B4B1A687B681A647B68002B16D07B689E
:10122000184602F0D3FB78687B6803F134017B68D1
:10123000DA6A7B681B6B1D467B681B681C467B68F3
:101240001B6BE31A00932B4600F0E6FB7B68184605
:1012500002F040FC7B68DB6A01229A40194B1B6854
:101260001343184A13607B68DA6A13469B001344E1
:101270009B00154A1A447B68043319461046FFF751
:10128000A0F9FFF7C7FB0D4B1B68002B0ED00A4BD4
:101290001B68DA6A7B68DB6A9A4207D20B4B4FF015
:1012A00080521A60BFF34F8FBFF36F8F00BF0837B4
:1012B000BD46B0BD382D0120602C0120442D0120F9
:1012C000542D0120402D0120642C012004ED00E06C
:1012D00080B586B002AF244B019300230093002316
:1012E000822222492248FFF78FFEF860FB68012B1B
:1012F00024D14FF0500383F31188BFF36F8FBFF3F6
:101300004F8FBB6000BF1B4B4FF0FF321A601A4B70
:1013100001221A60194B00221A60194B1A68124BED
:101320001B689A4202D102F035FB04E0144B1B68A3
:10133000184602F08DFBFFF71DFA0EE0FB68B3F1D3
:10134000FF3F0AD14FF0500383F31188BFF36F8F33
:10135000BFF34F8F7B6000BFFEE70A4B1B6800BFE7
:101360001037BD4680BD00BF5C2D01201C5B00080E
:1013700055170008582D0120442D01203C2D012037
:10138000602C01200400002080B400AF044B1B68D7
:101390000133034A136000BFBD465DF8047B70470C
:1013A000602D012080B584B000AF0023FB600023D6
:1013B000BB60434B1B68002B0AD14FF0500383F3F3
:1013C0001188BFF36F8FBFF34F8F3B6000BFFEE705
:1013D000FFF7F0FA3A4B1B68013B394A1360384B70
:1013E0001B68002B65D1374B1B68002B61D032E0A6
:1013F000354BDB68DB68FB60FB6818331846FFF78A
:1014000004F9FB6804331846FFF7FFF8FB68184639
:1014100002F060FBFB68DB6A01229A402B4B1B68E1
:1014200013432A4A1360FB68DA6A13469B0013448D
:101430009B00274A1A44FB68043319461046FFF7FD
:10144000C0F8FB68DA6A234B1B68DB6A9A4202D356
:10145000214B01221A601C4B1B68002BC8D1FB6872
:10146000002B01D000F00CFA1C4B1B687B607B68E2
:10147000002B10D000F048F80346002B02D0164B8A
:1014800001221A607B68013B7B607B68002BF1D1F5
:10149000124B00221A60104B1B68002B09D001234D
:1014A000BB600F4B4FF080521A60BFF34F8FBFF3FA
:1014B0006F8FFFF7AFFABB6818461037BD4680BD87
:1014C000602D0120382D0120F82C0120402D012015
:1014D000642C0120602C01204C2D0120482D01207E
:1014E00004ED00E080B582B000AFFFF74FFB0023B2
:1014F0007B60044B1B683B603B6818460837BD4661
:1015000080BD00BF3C2D012080B586B000AF002318
:101510007B61504B1B68002B40F092804E4B1B6848
:1015200001333B614C4A3B6913603B69002B20D17E
:101530004A4B1B681B68002B0AD04FF0500383F303
:101540001188BFF36F8FBFF34F8F3B6000BFFEE783
:10155000424B1B68FB60424B1B68404A1360404A89
:10156000FB6813603F4B1B6801333E4A136000F079
:1015700087F93D4B1B683A699A424CD3374B1B683D
:101580001B68002B04D1384B4FF0FF321A6042E049
:10159000324B1B68DB68DB68BB60BB685B687B60E9
:1015A0003A697B689A4203D22F4A7B68136032E023
:1015B000BB6804331846FFF728F8BB689B6A002B0A
:1015C00004D0BB6818331846FFF71FF8BB681846ED
:1015D00002F080FABB68DB6A01229A40234B1B6849
:1015E0001343224A1360BB68DA6A13469B00134414
:1015F0009B001F4A1A44BB68043319461046FEF785
:10160000E0FFBB68DA6A1B4B1B68DB6A9A42B5D302
:1016100001237B61B2E7174B1B68DA6A1449134652
:101620009B0013449B000B441B68012B01D9012331
:101630007B61114B1B68002B07D001237B6104E009
:101640000E4B1B6801330D4A13607B69184618372F
:10165000BD4680BD602D01203C2D0120F02C0120D5
:10166000F42C0120502D0120582D0120402D012067
:10167000642C0120602C01204C2D0120482D0120DC
:1016800080B586B000AF2D4B1B68002B03D02C4BD0
:1016900001221A604DE02A4B00221A60294B1B6878
:1016A000FB60FB68B3FA83F3FB72FB7AC3F11F03A1
:1016B0007B6125497A6913469B0013449B000B44C8
:1016C0001B68002B0AD14FF0500383F31188BFF33E
:1016D0006F8FBFF34F8F7B6000BFFEE77A691346C1
:1016E0009B0013449B00184A13443B613B695B68B1
:1016F0005A683B695A603B695A683B6908339A42A9
:1017000004D13B695B685A683B695A603B695B6816
:10171000DB680E4A13600D4B1A680D4B1B689A422A
:1017200002D102F037F904E0084B1B68184602F0BA
:101730008FF900BF1837BD4680BD00BF602D012066
:101740004C2D0120402D0120642C0120602C012013
:101750005C2D012080B582B000AF786000F052F8B7
:10176000064B1B68012BF9D9054B4FF080521A60CC
:10177000BFF34F8FBFF36F8FF0E700BF642C0120E2
:1017800004ED00E080B582B000AF00237B600CE088
:101790007A6813469B0013449B00124A1344184670
:1017A000FEF7E2FE7B6801337B607B68042BEFD998
:1017B0000D48FEF7D9FE0D48FEF7D6FE0C48FEF7A1
:1017C000D3FE0C48FEF7D0FE0B48FEF7CDFE0B4BC8
:1017D000054A1A600A4B054A1A6000BF0837BD4621
:1017E00080BD00BF642C0120C82C0120DC2C01200E
:1017F000F82C01200C2D0120242D0120F02C01209B
:10180000F42C012080B582B000AF19E0FFF7D2F8C8
:10181000104BDB68DB687B607B6804331846FEF79F
:10182000F4FE0D4B1B68013B0B4A13600B4B1B680E
:10183000013B0A4A1360FFF7EDF8786800F010F8F2
:10184000064B1B68002BE1D100BF00BF0837BD4627
:1018500080BD00BF0C2D0120382D0120202D01203E
:1018600080B582B000AF78607B681B6B1846FFF7CD
:10187000ADFA7868FFF7AAFA00BF0837BD4680BD09
:1018800080B400AF0A4B1B681B68002B04D1094BC6
:101890004FF0FF321A6005E0054B1B68DB681B68E0
:1018A000044A136000BFBD465DF8047B704700BF6B
:1018B000F02C0120582D012080B500AF034801F025
:1018C00099FF034801F096FF00BF80BD245B00082C
:1018D000685B000880B500AF064B1868054B1968B7
:1018E000054B064A01F00AFC4FF0805001F04AFC1B
:1018F00000BF80BD10000020B9180008605C00081F
:10190000F0B585B002AF00237B6033E01E497A68F2
:1019100013469B0013449B000B4418681A497A68CD
:1019200013469B0013449B000B4404331968164C68
:101930007A6813469B0013449B00234408331C68B9
:10194000114D7A6813469B0013449B002B440C33C3
:101950001D680D4E7A6813469B0013449B00334468
:1019600010331B6800932B46224600F0BDF87B68BD
:1019700001337B60054B1B687A689A42C6D300BF6F
:1019800000BF0C37BD46F0BD642D0120042E0120A0
:101990002DE9B04F82B000AFFFF7A4FD034600224F
:1019A0009A469346C7E900ABD7E9000102460B46C9
:1019B0004FF0000A4FF0000B4FEA431B4BEAD26B8B
:1019C0004FEA421A52465B46141A63EB01054FF088
:1019D00000024FF00003AB0043EA9473A2001446E8
:1019E0001D4614EB000845EB01094FF000024FF0D3
:1019F00000034FEAC90343EA58734FEAC80290460E
:101A00009946C7E90089D7E90023104619460837E7
:101A1000BD46BDE8B08F000080B586B002AFF8606B
:101A2000B9607A603B6005222B49B86804F044F83D
:101A30000346002B4BD0294B1B68072B03D92848A2
:101A400002F07AF944E0254B1A68264913469B00B8
:101A500013449B000B44FA681A60204B1A68214912
:101A600013469B0013449B000B440433BA681A606E
:101A70001A4B1A681B4913469B0013449B000B44E6
:101A800008337A681A60154B1A68164913469B008A
:101A900013449B000B440C333A681A600F4B1A68CE
:101AA000104913469B0013449B000B441033BA6942
:101AB0001A600A4B1B680133084A1360BB69009324
:101AC0003B687A68B968F86800F00EF800E000BF7B
:101AD0001037BD4680BD00BF785B0008042E012092
:101AE000805B0008642D012080B58AB000AFF860EB
:101AF000B9607A603B6007F1140314220021184694
:101B000003F0F8FFFB687B61BB68BB617B68FB612E
:101B10003B683B623B6B7B6207F11403184601F0A4
:101B200071FD00BF2837BD4680BD000080B483B082
:101B300000AF0346FB7197F90730002B0BDBFB79F5
:101B400003F01F02074997F907305B09012000FAEB
:101B500002F241F8232000BF0C37BD465DF8047B3C
:101B6000704700BF00E100E080B483B000AF0346DF
:101B70003960FB7197F90730002B0ADB3B68DAB25A
:101B80000C4997F907301201D2B20B4483F80023B5
:101B90000AE03B68DAB20849FB7903F00F03043B23
:101BA0001201D2B20B441A7600BF0C37BD465DF865
:101BB000047B704700E100E000ED00E080B582B0FA
:101BC00000AF02F015F978607B68002B01D101F0BD
:101BD0009DFB00BF0837BD4680BD000080B582B0C8
:101BE00000AF0346FB710C4B1B78032B06D80A4B46
:101BF0001B780133DAB2084B1A7009E0FFF7DEFFF9
:101C0000054B5B681846FB1D0122194600F09AFB44
:101C100000BF0837BD4680BD0800002080B584B0F5
:101C200000AF7860144B5B78032B0FD8124B5B78B6
:101C30001A46124B9A5C7B681A700F4B5B78013323
:101C4000DAB20D4B5A700123FB600FE00A4B5B6860
:101C500001227968184600F019FA0346FB60FB6818
:101C6000002B02DA0023FB6000E000BFFB6818468F
:101C70001037BD4680BD00BF08000020685C00082A
:101C800080B582B000AF7860044A0549786800F0FA
:101C900063F800BF0837BD4680BD00BFDD1B0008EC
:101CA0001D1C000880B584B000AF1E4B1B68FB6094
:101CB000FB6803F02003002B11D01B4B1B68DBB229
:101CC000FB71FB6803F00B03002B08D1174B1B685B
:101CD000002B04D0154B1B68FA7910469847FB6817
:101CE00003F08003002B1AD0114B1B68002B15D07A
:101CF0000F4B1B68FA1D10469847B860BB68002B55
:101D000006D10C4B1B680B4A23F08003136006E0DE
:101D1000044B1B68FA79044B1A6000E000BF1037CF
:101D2000BD4680BD0044004004440040082E012010
:101D30000C2E01200C44004080B400AF054B1B6802
:101D4000044A43F08003136000BFBD465DF8047B86
:101D5000704700BF0C44004080B586B000AFF8600B
:101D6000B9607A602E4B1B682D4A43F40033136030
:101D70002C4B1B682B4A43F0010313602A4B1B6852
:101D80003B613B6923F47F433B613B6943F4EE4392
:101D90003B61254A3B691360244B1B683B613B69EF
:101DA00023F0F0033B613B6943F0A0033B611F4A12
:101DB0003B6913601E4B4AF22C021A601D4B002235
:101DC0001A601D4B80221A60FB68DB007B611B4A96
:101DD0007B69B2FBF3F301337B617B695B087B6159
:101DE0007B69B3F5805F02D340F6FF737B617B694B
:101DF000002B04D07B691B01114A9BB21360114A6E
:101E00007B681360104ABB68136006212620FFF729
:101E1000ABFE2620FFF78AFE00BF1837BD4680BD07
:101E200040380240303802402000024000000240AA
:101E30000C440040104400401444004000BD010523
:101E400008440040082E01200C2E012080B483B0ED
:101E500000AF244B7B607B6803221A617B680322FE
:101E60005A617B68204A9A617B68204ADA617B6804
:101E70004FF480621A627B6800229A627B680022BB
:101E80005A627B680022DA627B68174A1A667B68AE
:101E9000174A5A667B6810229A667B6800221A6786
:101EA0007B680022DA667B6800225A677B6807330A
:101EB000104A10681860BFF35F8F7B680E4A106885
:101EC00018609188927999809A71BFF35F8F7B68CF
:101ED00020229A71BFF35F8F00BF0C37BD465DF8BB
:101EE000047B7047102E0120D05B0008B82E012023
:101EF000B8320120DC5B0008E05B000880B58AB0E6
:101F000000AFF860B9607A6000233B62FB68DB6871
:101F1000FB61FB681B69BB61BA69FB699A4205D921
:101F2000BA69FB69D31A013B7B6207E0FB689A68D8
:101F3000B969FB69CB1A1344013B7B62FB689A6861
:101F4000FB69D31A7A6A934228BF13467B627A6A86
:101F50007B68934228BF13467B62FB685A68FB6923
:101F600013447B617A6AB968786903F0B5FD3A6A0F
:101F70007B6A13443B62BA687B6A1344BB607A682D
:101F80007B6AD31A7B60FA697B6A1344FB61FB6846
:101F90009B68FA699A4201D10023FB61BFF35F8F0E
:101FA000FB68FA69DA607B68002BB2D13B6A18469D
:101FB0002837BD4680BD80B588B000AFF860B960F5
:101FC0007A60FB68DB68FB61FB689A68FB69D31A7F
:101FD000BB61BA697B689A4211D9FB685A68FB6990
:101FE00013443B617A68B968386903F075FDBFF343
:101FF0005F8FFA697B681A44FB68DA601FE0BB698F
:102000007B61FB685A68FB6913443B617A69B96874
:10201000386903F061FD7A68BB69D31A7B61FB689C
:102020005B683B61BA68BB6913447A6919463869D1
:1020300003F052FDBFF35F8FFB687A69DA6000BF7F
:102040002037BD4680BD80B487B000AF78607B6824
:102050001B693B617B68DB68FB603A69FB689A42FD
:1020600008D87B689A68FB68D21A3B691344013B25
:102070007B6104E03A69FB68D31A013B7B617B69B1
:1020800018461C37BD465DF8047B704780B58CB0A0
:1020900000AFF860B9607A603E4B3B623B6A1B78E8
:1020A000DBB2002B01D1FFF7D1FEFB685A1C1346AF
:1020B0005B001344DB00374A1344FB61BB687B625F
:1020C000FB691B69BB62FB69DB68BB610023FB62C8
:1020D000BA6ABB699A422BD9FB699A68BB6AD31A60
:1020E0007B617A697B68934228BF13467B61FB69F9
:1020F0005A68BB6A13443B617A693969786A03F0AC
:10210000EBFCFA6A7B691344FB627A6A7B691344CD
:102110007B627A687B69D31A7B60BA6A7B691344F5
:10212000BB62FB699B68BA6A9A4201D10023BB6219
:10213000BA69BB6AD31A7B617A697B68934228BF0C
:1021400013467B617B69002B19D0FB695A68BB6A17
:1021500013443B617A693969786A03F0BDFCFA6A15
:102160007B691344FB627A6A7B6913447B627A68F9
:102170007B69D31A7B60BA6A7B691344BB62FB6AD2
:10218000002B02D0FB69BA6A1A61FB6A1846303725
:10219000BD4680BD102E012080B58CB000AFF86028
:1021A000B9607A603E4B3B623B6A1B78DBB2002B26
:1021B00001D1FFF74BFEFA6813465B001344DB00C6
:1021C0006033374A1344FB61BB687B62FB691B6960
:1021D000BB62FB69DB68BB610023FB62BA6ABB6957
:1021E0009A422BD9FB699A68BB6AD31A7B617A69D8
:1021F0007B68934228BF13467B61FB695A68BB6AC0
:1022000013443B617A693969786A03F065FCFA6ABC
:102210007B691344FB627A6A7B6913447B627A6848
:102220007B69D31A7B60BA6A7B691344BB62FB6922
:102230009B68BA6A9A4201D10023BB62BA69BB6A41
:10224000D31A7B617A697B68934228BF13467B610E
:102250007B69002B19D0FB695A68BB6A13443B6148
:102260007A693969786A03F037FCFA6A7B69134442
:10227000FB627A6A7B6913447B627A687B69D31A52
:102280007B60BA6A7B691344BB62FB6A002B02D095
:10229000FB69BA6A1A61FB6A18463037BD4680BDD1
:1022A000102E012080B588B000AFF860B9607A6068
:1022B000BB68BB61FA6813465B001344DB00603304
:1022C0001F4A13447B617B695B69022B29D0022B77
:1022D0002ED8002B02D0012B13D029E07869FFF70C
:1022E000B2FE38613A697B689A4202D20023FB61F0
:1022F00021E07B68FB617A68B9697869FFF75BFE6A
:1023000019E07869FFF79FFE38617A683B6993426C
:1023100028BF1346FB61FA69B9697869FFF74BFE7C
:1023200009E07A68B9697869FFF7E8FDF86102E0C9
:102330000023FB6100BFFB6918462037BD4680BD06
:10234000102E012080B588B000AFF860B9607A60C7
:102350000E4BFB61FB691B78DBB2002B01D1FFF751
:1023600075FDEFF311834FF0200181F31188BB61FC
:102370007A68B968F868FFF795FF7861BB6983F3FD
:1023800011887B6918462037BD4680BD102E01207C
:1023900080B588B000AFF860B9607A603B603D4BB3
:1023A000BB61BB691B78DBB2002B01D1FFF74EFD8F
:1023B000EFF311834FF0200181F311887B61354BDE
:1023C0003B610023FB613969FB695A1C13465B00C2
:1023D0001344DB000B4404331B68002B08D0FB695B
:1023E0000133FB613B691B69FA699A42EBDB00E050
:1023F00000BF3B691B69FA699A423FDA3969FB6998
:102400005A1C13465B001344DB000B44FA681A6045
:102410003969FB695A1C13465B001344DB000B440B
:102420000433BA681A603969FA6913465B001344C9
:10243000DB000B4420337A681A603969FA69134665
:102440005B001344DB000B44283300221A60396917
:10245000FA6913465B001344DB000B44243300226B
:102460001A603969FA6913465B001344DB000B44B8
:102470002C333A681A60BFF35F8F02E04FF0FF33EE
:10248000FB617B6983F31188FB6918462037BD46E1
:1024900080BD00BF102E012080B588B000AFF8606D
:1024A000B9607A603B60334BBB61BB691B78DBB2C0
:1024B000002B01D1FFF7CAFC2E4B7B617B695B6966
:1024C0001A46FB6893424DD2EFF311834FF020017F
:1024D00081F311883B61FB68002B31D07969FA6880
:1024E00013465B001344DB000B446033BA681A6088
:1024F0007969FA6813465B001344DB000B446433CC
:102500007A681A607969FA6813465B001344DB0045
:102510000B4468333A681A607969FA6813465B00BD
:102520001344DB000B44703300221A607969FA68A7
:1025300013465B001344DB000B446C3300221A602B
:102540007969FA6813465B001344DB000B4474336B
:10255000BA6A1A60BFF35F8F3B6983F31188002367
:10256000FB6102E04FF0FF33FB61FB691846203747
:10257000BD4680BD102E012080B487B000AFF8604A
:10258000B9607A6000233B6102E03B6901333B6143
:10259000BA683B6913441B78002BF6D13A697B6813
:1025A0009A4201D97B683B613B69FE2B06D8FB68E8
:1025B0005A1CFA603A69D2B21A7011E0FB685A1CD0
:1025C000FA60FF221A70FB685A1CFA603A69D2B2AC
:1025D0001A703B69190AFB685A1CFA60CAB21A7071
:1025E00000237B610AE0BA68531CBB60FB68591C7E
:1025F000F96012781A707B6901337B617A693B69F3
:102600009A42F0D3FB6818461C37BD465DF8047B40
:10261000704780B483B000AF78607B68043318469D
:102620000C37BD465DF8047B7047000080B582B072
:1026300000AF364B1B7E1846FB1C01221946FFF7E4
:10264000ABFD03467B607B68002B54DDFB78802B61
:1026500032D0802B42DC072B16DC002B3EDD013B09
:10266000062B3BD801A252F823F000BF8F260008AA
:10267000952600089B260008A1260008A72600082A
:10268000AD260008B32600087F2B36D026E000F0E8
:102690003DFE37E000F0F6FE34E001F0CFF831E027
:1026A00001F094F82EE000F013FF2BE001F0F2FAB5
:1026B00028E001F0D1FA25E0144B1B7E1846FB1CE4
:1026C00001221946FFF768FD03467B607B68002BFB
:1026D00015DDFB78184601F03FFA10E0FB785BB29D
:1026E000002B0EDA094B1B7E1846FB1C01221946F3
:1026F000FFF752FD05E000BF04E000BF02E000BFAD
:1027000000E000BF00BF0837BD4680BDD0420120B9
:1027100080B58CB000AF01233B713B1D0133FB61E1
:10272000FB69FB62324B5B69BB620BE0BB6ADAB2EE
:10273000FB6A591CF96262F07F02D2B21A70BB6A5E
:10274000DB09BB62BB6A7F2BF0D8FB6A5A1CFA62BA
:10275000BA6AD2B21A70FB6AFB61264B1B68BB6176
:10276000234BDB68BA69D31A7B61FB697B627B69A7
:102770003B620BE03B6ADAB27B6A591C796262F019
:102780007F02D2B21A703B6ADB093B623B6A7F2B45
:10279000F0D87B6A5A1C7A623A6AD2B21A707B6AA3
:1027A000FB61134B5B7818463B1DFA69D31A1A4636
:1027B0003B1D1946FDF70CFD03463B61FFF7BCFAD4
:1027C0003B69002B09D00A4ABB69D360084B1B78D0
:1027D000013BDAB2064B1A7004E0054B5B6901332A
:1027E000034A53613B6918463037BD4680BD00BF80
:1027F000D0420120041000E080B58AB000AFF8603C
:10280000B9607A606D4B1B78012B10D06B4B1B7835
:10281000002B00F0A580694B1B78022B09D1FFF734
:1028200077FF664B1B78012B40F09C8001E000BFD6
:1028300000E000BF7B681F2B09D8604BDA697B681A
:1028400022FA03F303F00103002B40F08D807B6834
:10285000172B07D8FB68013BFB607B68DAB2FB688B
:102860001A703DE0BA68FB68D31AFB61FB697F2BE5
:1028700012D9FB69DA09FB68013BFB60D2B2FB6845
:102880001A70FB69DBB2FA68013AFA6063F07F0301
:10289000DAB2FB681A7006E0FB68013BFB60FB697B
:1028A000DAB2FB681A707B687F2B12D97B68DA0971
:1028B000FB68013BFB60D2B2FB681A707B68DBB23D
:1028C000FA68013AFA6063F07F03DAB2FB681A70C3
:1028D00006E0FB68013BFB607B68DAB2FB681A70BC
:1028E000374B1B68BB61354BDB68BA69D31A7B6118
:1028F000BB687B627B693B620BE03B6ADAB27B6A56
:10290000591C796262F07F02D2B21A703B6ADB090D
:102910003B623B6A7F2BF0D87B6A5A1C7A623A6A28
:10292000D2B21A707B6ABB60244B5B781846BA68D7
:10293000FB68D31A1A46F968FDF74AFC03463B6167
:10294000FFF7FAF93B69002B03D01C4ABB69D3603F
:102950000BE01A4B1B780133DAB2184B1A7004E003
:1029600000BF02E000BF00E000BF144B1B7E194611
:10297000144A0B465B000B44DB0013446C331A68AB
:102980000E4B1B7E18460F4903465B000344DB00D9
:102990000B4470331B689A420BD0084B9B78002B7A
:1029A00007D1064B01229A70FFF740FE034B00222D
:1029B0009A7000BF2837BD4680BD00BFD0420120BD
:1029C000041000E0102E012080B58AB000AF7860BE
:1029D0000B46FB707B681B697B617B690133802B35
:1029E0000AD87B685B68591C7A685160FA781A705B
:1029F0007B695A1C7B681A617B681B69802B5AD1E2
:102A00007B681A697B689B68D2B21A707B685B68C6
:102A10003B617B68DB68FB603B697B62FB683B6218
:102A20000BE03B6ADAB27B6A591C796262F07F0282
:102A3000D2B21A703B6ADB093B623B6A7F2BF0D84B
:102A40007B6A5A1C7A623A6AD2B21A707B6A3B611C
:102A50003B69FB610023BB610BE0BB69DAB2FB6938
:102A6000591CF96162F07F02D2B21A70BB69DB09AE
:102A7000BB61BB697F2BF0D8FB695A1CFA61BA694C
:102A8000D2B21A70FB693B617B689B681A22396974
:102A90001846FFF7B1FE7B681B681846FFF7B9FDC3
:102AA00002467B689A607B689B685A1C7B685A6008
:102AB0007B6800221A6100BF2837BD4680BD000038
:102AC00080B58AB000AFF860B9607A603B60BB68DF
:102AD0003B6201237B620123FB6107E03A6A7B686A
:102AE000B2FBF3F33B62FB690133FB613A6A7B683B
:102AF0009A42F3D23A68FB699A4201D93B68FB617A
:102B00007B6B03F00103002B1FD13B6B002B1CD010
:102B10007B6B03F00203002B05D03B68002B02D136
:102B20003023FB7601E02023FB7607E03B6B013B83
:102B30003B63FB7E1946F868FFF746FF3B6B002BB3
:102B400003D0FA693B6B9A42F0D33B68012B03D95F
:102B50003B68013B3B6009E0BA687B6AB2FBF3F378
:102B60007B617A697B689A4200D205E07B6A7A6869
:102B700002FB03F37B62E8E7BA687B6AB2FBF3F31C
:102B80007B617B697A6A02FB03F3BA68D31ABB6084
:102B9000154A7B6913441B781946F868FFF714FF40
:102BA0007A6A7B68B2FBF3F37B627B6A002BE3D12A
:102BB0007B6B03F00103002B11D03B6B002B0ED07D
:102BC00006E03B6B013B3B632021F868FFF7FCFE0E
:102BD0003B6B002B03D0FA693B6B9A42F1D300BFE9
:102BE0002837BD4680BD00BF785C000880B588B03E
:102BF00002AFF860B9607A603B60BB68002BB8BF79
:102C00005B423B6101237B6107E07B683A6992FB91
:102C1000F3F33B617B6901337B617B683A699A42DC
:102C2000F3DA3A687B699A4201D93B687B613B6A77
:102C3000002B0AD0BB68002B04DB7B6A03F0040383
:102C4000002B02D03B6A013B3B627B6A03F002032C
:102C5000002B02D03B68002B16D07B6A03F00103E7
:102C6000002B11D13B6A002B0ED006E03B6A013BE2
:102C70003B622021F868FFF7A7FE3B6A002B03D0D8
:102C80007A693B6A9A42F1D3BB68002B07DABB68CA
:102C90005B42BB602D21F868FFF796FE08E07B6A77
:102CA00003F00403002B03D02B21F868FFF78CFE00
:102CB0007B6A03F00203002B19D07B6A03F0010347
:102CC000002B14D13B68002B11D13B6A002B0ED096
:102CD00006E03B6A013B3B623021F868FFF774FE77
:102CE0003B6A002B03D07A693B6A9A42F1D3B968F8
:102CF0007B6A01933B6A00933B687A68F868FFF748
:102D0000DFFE00BF1837BD4680BD000080B598B01B
:102D100002AFF860B9607A60EFF311834FF02001E1
:102D200081F311883B63B748FFF773FCF862B54B3A
:102D30007B6100237B62FB6AFB61FB690133BB6142
:102D4000BB683B62FB681B7887F85730FB68013330
:102D5000FB6097F85730002B00F0838197F85730CD
:102D6000252B40F070810023BB6401233B65FB6889
:102D70001B7887F8573097F85730233B0D2B3FD8F7
:102D800001A252F823F000BFF12D0008012E000827
:102D9000012E0008012E0008012E0008012E000857
:102DA000012E0008012E0008E12D0008012E000868
:102DB000C12D0008012E0008012E0008D12D0008A9
:102DC000BB6C43F00103BB64FB680133FB601AE09A
:102DD000BB6C43F00203BB64FB680133FB6012E091
:102DE000BB6C43F00403BB64FB680133FB600AE087
:102DF000BB6C43F00803BB64FB680133FB6002E07B
:102E000000233B6500BF3B6D002BB0D100237B64EA
:102E1000FB681B7887F8573097F857302F2B12D95B
:102E200097F85730392B0ED8FB680133FB607A6C6A
:102E300013469B0013445B001A4697F8573013441F
:102E4000303B7B64E4E70023FB64FB681B7887F876
:102E5000573097F857302E2B1DD1FB680133FB609C
:102E6000FB681B7887F8573097F857302F2B12D90B
:102E700097F85730392B0ED8FB680133FB60FA6C9A
:102E800013469B0013445B001A4697F857301344CF
:102E9000303BFB64E4E7FB681B7887F8573097F812
:102EA00057306C2B03D097F85730682B07D1FB684D
:102EB0001B7887F85730FB680133FB60EFE797F822
:102EC0005730252B00F0B380252BC0F2B780782B2C
:102ED00000F3B480582BC0F2B180583B202B00F295
:102EE000AD8001A252F823F0DF2F00083D3000082A
:102EF0003D3000083D3000083D3000083D300008FE
:102F00003D3000083D3000083D3000083D300008ED
:102F10003D3000086D2F0008932F00083D30000859
:102F20003D3000083D3000083D3000083D300008CD
:102F30003D3000083D3000083D3000083D300008BD
:102F40003D3000083D300008093000083D300008E1
:102F50003D3000083D3000083D300008B92F000822
:102F60003D3000083D300008DF2F00087B681B68FB
:102F7000191D7A6811601B683B653B6D87F82B3023
:102F800097F82B2007F1140311461846FFF71CFD94
:102F900055E07B681B68191D7A6811601B683B65EA
:102FA00007F11400BB6C01937B6C0093FB6C0A224D
:102FB000396DFFF71BFE42E07B681B68191D7A68BC
:102FC00011601B683B65396D07F11400BB6C019300
:102FD0007B6C0093FB6C0A22FFF772FD2FE07B688D
:102FE0001B68191D7A6811601B683B65396D07F114
:102FF0001400BB6C01937B6C0093FB6C1022FFF7F9
:103000005FFD1CE0004301207B681B68191D7A6886
:1030100011601B683B65396D07F1140000230193B3
:103020000823009308231022FFF74AFD07E007F169
:10303000140325211846FFF7C7FC00E000BFFB681A
:103040000133FB6007E097F8572007F1140311469E
:103050001846FFF7B9FCFB681B78002B7FF472AEB3
:1030600000E000BF7B6A002B41D07A6AFB69D2B2D4
:103070001A70BB693B643B6AFB630BE0FB6BDAB223
:103080003B6C591C396462F07F02D2B21A70FB6B40
:10309000DB09FB63FB6B7F2BF0D83B6C5A1C3A645B
:1030A000FA6BD2B21A703B6CBB61BB69BB63002385
:1030B0007B630BE07B6BDAB2BB6B591CB96362F0CC
:1030C0007F02D2B21A707B6BDB097B637B6B7F2B39
:1030D000F0D8BB6B5A1CBA637A6BD2B21A70BB6B56
:1030E000BB61FB69B9691A221846FFF785FB3B6B88
:1030F00083F3118800BF5837BD4680BD80B586B0C8
:1031000002AFF860B9607A603B6000234FF48052F0
:1031100017491848FFF73CF90346DAB2164B5A70C4
:10312000154B5A78144B1A76134B1B7E1846002306
:1031300000930823114A0F49FFF7AEF90E4B002206
:103140001A610F4B1B680C4AD3600B4A7B681362F1
:10315000094AFB685360084ABB689360064A3B68AB
:103160005362054B00221A7000BF1037BD4680BD68
:10317000C8320120E85B0008D0420120C84201208B
:10318000041000E080B483B000AF7860044A7B682C
:10319000136100BF0C37BD465DF8047B704700BF6C
:1031A000D042012080B584B000AF7860EFF3118386
:1031B0004FF0200181F31188FB600848FFF729FADE
:1031C000B8607A68B968B868FFF716FBFB6883F3E4
:1031D000118800BF1037BD4680BD00BF00430120ED
:1031E00080B588B000AF78603960EFF311834FF09D
:1031F000200181F311887B611648FFF70AFA3861D4
:103200003B69FB60FB68FB613B68BB610BE0BB6932
:10321000DAB2FB69591CF96162F07F02D2B21A700E
:10322000BB69DB09BB61BB697F2BF0D8FB695A1C0A
:10323000FA61BA69D2B21A70FB69FB607A68F96800
:103240003869FFF7D9FA7B6983F3118800BF20370B
:10325000BD4680BD0043012080B58CB000AFF86052
:10326000B9607A60EFF311834FF0200181F3118888
:10327000FB612548FFF7CDF9B861BB697B617B69CC
:10328000FB62BB68BB620BE0BB6ADAB2FB6A591C2B
:10329000F96262F07F02D2B21A70BB6ADB09BB62CC
:1032A000BB6A7F2BF0D8FB6A5A1CFA62BA6AD2B2A8
:1032B0001A70FB6A7B617B697B627B683B620BE017
:1032C0003B6ADAB27B6A591C796262F07F02D2B241
:1032D0001A703B6ADB093B623B6A7F2BF0D87B6A42
:1032E0005A1C7A623A6AD2B21A707B6A7B61FA68B7
:1032F0007969B869FFF780FAFB6983F3118800BF29
:103300003037BD4680BD00BF0043012080B58CB082
:1033100000AF594B01221A70EFF311834FF02001D7
:1033200081F31188FB60544B5B780A22534918469D
:10333000FCF74EFFFB6883F31188FEF7FDFC0A20C3
:10334000FFF730FFEFF311834FF0200181F3118875
:10335000BB604B48FFF75DF978607B683B603B687A
:10336000FB62454B5B68BB620BE0BB6ADAB2FB6A8F
:10337000591CF96262F07F02D2B21A70BB6ADB0993
:10338000BB62BB6A7F2BF0D8FB6A5A1CFA62BA6A2E
:10339000D2B21A70FB6A3B603B687B62364B9B681B
:1033A0003B620BE03B6ADAB27B6A591C796262F0DD
:1033B0007F02D2B21A703B6ADB093B623B6A7F2B09
:1033C000F0D87B6A5A1C7A623A6AD2B21A707B6A67
:1033D0003B603B68FB61284B1B69BB610BE0BB6931
:1033E000DAB2FB69591CF96162F07F02D2B21A703D
:1033F000BB69DB09BB61BB697F2BF0D8FB695A1C39
:10340000FA61BA69D2B21A70FB693B603B687B61B2
:1034100000233B610BE03B69DAB27B69591C79619F
:1034200062F07F02D2B21A703B69DB093B613B69F3
:103430007F2BF0D87B695A1C7A613A69D2B21A7034
:103440007B693B60182239687868FFF7D5F9BB685B
:1034500083F31188084B5B6A002B02D0064B5B6A32
:10346000984700F0EBF900F0B1F900F013FC00BF51
:103470003037BD4680BD00BFD04201206C5C0008E3
:103480000043012080B582B000AFEFF311834FF00D
:10349000200181F311887B600B48FFF7BAF8386090
:1034A0000A4B1B78002B07D00B2239683868FFF7CE
:1034B000A3F9064B00221A707B6883F3118800BFC2
:1034C0000837BD4680BD00BF00430120D042012027
:1034D00080B58CB000AFEFF311834FF0200181F382
:1034E0001188FB604548FFF794F8B860BB687B60C3
:1034F0007B68FB62424B5B68BB620BE0BB6ADAB283
:10350000FB6A591CF96262F07F02D2B21A70BB6A80
:10351000DB09BB62BB6A7F2BF0D8FB6A5A1CFA62DC
:10352000BA6AD2B21A70FB6A7B607B687B62344BEA
:103530009B683B620BE03B6ADAB27B6A591C79629A
:1035400062F07F02D2B21A703B6ADB093B623B6ACF
:103550007F2BF0D87B6A5A1C7A623A6AD2B21A7010
:103560007B6A7B607B68FB61254B1B69BB610BE061
:10357000BB69DAB2FB69591CF96162F07F02D2B211
:103580001A70BB69DB09BB61BB697F2BF0D8FB6993
:103590005A1CFA61BA69D2B21A70FB697B607B6807
:1035A0007B6100233B610BE03B69DAB27B69591C0C
:1035B000796162F07F02D2B21A703B69DB093B612C
:1035C0003B697F2BF0D87B695A1C7A613A69D2B289
:1035D0001A707B697B6018227968B868FFF70CF96C
:1035E000FB6883F31188064B5B6A002B02D0044B07
:1035F0005B6A984700BF3037BD4680BD004301205D
:10360000D042012080B592B000AF7860EFF3118313
:103610004FF0200181F311887B616A48FEF7F9FFC2
:1036200038613B69FB60FB687B647B681A68664BAA
:103630001B69D31A3B640BE03B6CDAB27B6C591C00
:10364000796462F07F02D2B21A703B6CDB093B6492
:103650003B6C7F2BF0D87B6C5A1C7A643A6CD2B2EC
:103660001A707B6CFB60FB68FB637B689B68BB63C9
:103670000BE0BB6BDAB2FB6B591CF96362F07F02A3
:10368000D2B21A70BB6BDB09BB63BB6B7F2BF0D86C
:10369000FB6B5A1CFA63BA6BD2B21A70FB6BFB60FD
:1036A0007B685B6820221946F868FEF765FFF860C2
:1036B0000922F9683869FFF79FF83B69FB60FB68EE
:1036C0007B637B681A68404B1B69D31A3B630BE032
:1036D0003B6BDAB27B6B591C796362F07F02D2B22A
:1036E0001A703B6BDB093B633B6B7F2BF0D87B6B2A
:1036F0005A1C7A633A6BD2B21A707B6BFB60FB6820
:10370000FB627B68DB68BB620BE0BB6ADAB2FB6A18
:10371000591CF96262F07F02D2B21A70BB6ADB09EF
:10372000BB62BB6A7F2BF0D8FB6A5A1CFA62BA6A8A
:10373000D2B21A70FB6AFB60FB687B627B681B6914
:103740003B620BE03B6ADAB27B6A591C796262F039
:103750007F02D2B21A703B6ADB093B623B6A7F2B65
:10376000F0D87B6A5A1C7A623A6AD2B21A707B6AC3
:10377000FB60FB68FB610023BB610BE0BB69DAB255
:10378000FB69591CF96162F07F02D2B21A70BB6901
:10379000DB09BB61BB697F2BF0D8FB695A1CFA615E
:1037A000BA69D2B21A70FB69FB601522F9683869F0
:1037B000FFF722F87B6983F3118800BF4837BD46C5
:1037C00080BD00BF00430120D042012080B500AF82
:1037D000074B1B6A002B08D0054B1B6A5B68002B4C
:1037E00003D0034B1B6A5B68984700BF80BD00BFD6
:1037F000D042012080B586B000AF7860EFF311832E
:103800004FF0200181F311887B610B48FEF701FF27
:103810003861802279683869FEF7AEFEF8600E22C2
:10382000F9683869FEF7E8FF7B6983F3118800BF08
:103830001837BD4680BD00BF0043012090B583B05E
:1038400000AF154B1B6A002B1AD0134B1B6A1B6869
:10385000002B15D0104B1B6A1B689847C7E9000165
:103860003C68D7E900014FF000024FF000030A0066
:10387000002313461A4621460D20FFF7EDFC06E013
:10388000064B1B6819460C20FFF7AAFC00BF00BFBF
:103890000C37BD4690BD00BFD0420120041000E0AF
:1038A00080B586B000AFEFF311834FF0200181F3B4
:1038B0001188FB601948FEF7ACFEB860BB687B60FE
:1038C000174B1B68C3F308033B607B687B613B6855
:1038D0003B610BE03B69DAB27B69591C796162F0AC
:1038E0007F02D2B21A703B69DB093B613B697F2BD7
:1038F000F0D87B695A1C7A613A69D2B21A707B6936
:103900007B6002227968B868FEF776FFFB6883F374
:10391000118800BF1837BD4680BD00BF004301209D
:1039200004ED00E080B582B000AFEFF311834FF0FB
:10393000200181F311887B600748FEF76AFE38603A
:10394000032239683868FEF757FF7B6883F31188D4
:1039500000BF0837BD4680BD0043012080B582B05E
:1039600000AFEFF311834FF0200181F311887B60EA
:103970000748FEF74EFE3860122239683868FEF7B5
:103980003BFF7B6883F3118800BF0837BD4680BDCD
:103990000043012080B582B000AFEFF311834FF0F8
:1039A000200181F311887B600748FEF732FE386002
:1039B000112239683868FEF71FFF7B6883F311888E
:1039C00000BF0837BD4680BD0043012080B588B0E8
:1039D00000AF7860EFF311834FF0200181F311887D
:1039E0007B611948FEF715FE38613B69FB60174B98
:1039F0001B697A68D31A7B60FB68FB617B68BB61DB
:103A00000BE0BB69DAB2FB69591CF96162F07F0215
:103A1000D2B21A70BB69DB09BB61BB697F2BF0D8DE
:103A2000FB695A1CFA61BA69D2B21A70FB69FB6071
:103A30000822F9683869FEF7DFFE7B6983F3118895
:103A400000BF2037BD4680BD00430120D042012089
:103A500080B588B000AF7860EFF311834FF020019C
:103A600081F311887B611948FEF7D3FD38613B690A
:103A7000FB60174B1B697A68D31A7B60FB68FB619C
:103A80007B68BB610BE0BB69DAB2FB69591CF96169
:103A900062F07F02D2B21A70BB69DB09BB61BB69FD
:103AA0007F2BF0D8FB695A1CFA61BA69D2B21A703E
:103AB000FB69FB600422F9683869FEF79DFE7B69AB
:103AC00083F3118800BF2037BD4680BD004301202D
:103AD000D042012080B588B000AF7860EFF3118349
:103AE0004FF0200181F311887B611948FEF791FDA9
:103AF00038613B69FB60174B1B697A68D31A7B609E
:103B0000FB68FB617B68BB610BE0BB69DAB2FB69F8
:103B1000591CF96162F07F02D2B21A70BB69DB09ED
:103B2000BB61BB697F2BF0D8FB695A1CFA61BA698B
:103B3000D2B21A70FB69FB600622F9683869FEF799
:103B40005BFE7B6983F3118800BF2037BD4680BDD3
:103B500000430120D042012080B58CB000AF034665
:103B6000FB713B4B1B68002B6DD0394B1B68FB6214
:103B70000023BB6208E0FB6A1B69FB62FB6A002B47
:103B800007D0BB6A0133BB62FB79BA6A9A42F2D3AF
:103B900000E000BFFB6A002B55D0EFF311834FF01C
:103BA000200181F311887B612A48FEF732FD3861DC
:103BB0003B69FB60FB687B62FB793B620BE03B6A25
:103BC000DAB27B6A591C796262F07F02D2B21A7053
:103BD0003B6ADB093B623B6A7F2BF0D87B6A5A1C4D
:103BE0007A623A6AD2B21A707B6AFB60FB68FB6148
:103BF000FB6A9B68BB610BE0BB69DAB2FB69591CCD
:103C0000F96162F07F02D2B21A70BB69DB09BB6155
:103C1000BB697F2BF0D8FB695A1CFA61BA69D2B232
:103C20001A70FB69FB60FB6A1B6880221946F86802
:103C3000FEF7A2FCF8601622F9683869FEF7DCFD91
:103C40007B6983F3118800BF3037BD4680BD00BF5C
:103C5000F84201200043012080B582B000AF0C4B38
:103C60001B68002B0FD00A4B1B687B607B68DB68EE
:103C7000002B02D07B68DB6898477B681B697B6000
:103C80007B68002BF2D100BF0837BD4680BD00BF66
:103C9000F842012080B586B000AFEFF311834FF0FA
:103CA000200181F31188FB601748FEF7B2FCB86071
:103CB000BB687B607B687B61144B1B783B610BE0CE
:103CC0003B69DAB27B69591C796162F07F02D2B23A
:103CD0001A703B69DB093B613B697F2BF0D87B693C
:103CE0005A1C7A613A69D2B21A707B697B601B22D6
:103CF0007968B868FEF780FDFB6883F3118800BF20
:103D00001837BD4680BD00BF00430120FC420120A2
:103D10000FB480B582B000AF07F114037B603B1D88
:103D20001A4600213869FEF7F1FF00BF0837BD468B
:103D3000BDE8804004B0704780B58AB000AF7860BD
:103D4000EFF311834FF0200181F311887B61274845
:103D5000FEF75FFC3861802279683869FEF70CFC59
:103D6000F860FB687B6201233B620BE03B6ADAB2DE
:103D70007B6A591C796262F07F02D2B21A703B6A88
:103D8000DB093B623B6A7F2BF0D87B6A5A1C7A6264
:103D90003A6AD2B21A707B6AFB60FB68FB6100234F
:103DA000BB610BE0BB69DAB2FB69591CF96162F0D7
:103DB0007F02D2B21A70BB69DB09BB61BB697F2B82
:103DC000F0D8FB695A1CFA61BA69D2B21A70FB6961
:103DD000FB601A22F9683869FEF70EFD7B6983F3F0
:103DE000118800BF2837BD4680BD00BF00430120B9
:103DF00080B500AF134B1B7E1946134A0B465B0080
:103E00000B44DB0013446C331A680E4B1B7E1846C0
:103E10000D4903465B000344DB000B4470331B6811
:103E20009A420BD0074B9B78002B07D1054B012200
:103E30009A70FEF7FBFB034B00229A70014B1B7834
:103E4000184680BDD0420120102E012080B58AB0D6
:103E500002AF01F0A7FD00F06DF800F0D5F82D4895
:103E6000FDF70EFF2C4B1B682B4A43F00103136038
:103E7000FDF730FD07F10C030193022300930023AB
:103E8000C82226492648FDF7BFF8F861FB69002BD8
:103E90000AD14FF0500383F31188BFF36F8FBFF344
:103EA0004F8FBB6100BFFEE707F1080301930223B8
:103EB00000930023C8221B491B48FDF7A5F8F861B1
:103EC000FB69002B0AD14FF0500383F31188BFF335
:103ED0006F8FBFF34F8F7B6100BFFEE73B1D0193E8
:103EE000022300930023C82210491148FDF78CF8E3
:103EF000F861FB69002B0AD14FF0500383F311885E
:103F0000BFF36F8FBFF34F8F3B6100BFFEE7FDF73D
:103F1000DFF9FEE720A10700001000E0F05B0008D9
:103F2000C5420008005C00081D430008105C000842
:103F3000F142000880B594B000AF07F120033022B1
:103F40000021184601F0D6FD07F10C0300221A608B
:103F50005A609A60DA601A610023BB60284B1B6CC0
:103F6000274A43F080531364254B1B6C03F08053A6
:103F7000BB60BB6800237B60224B1B68214A43F473
:103F8000804313601F4B1B6803F480437B607B6896
:103F900001233B624FF4A0237B620223BB634FF4F7
:103FA0008003FB6304233B64A8237B640223BB647C
:103FB0000723FB6407F12003184600F08FFD03463A
:103FC000002B01D000F0D2F90F23FB6002233B61EC
:103FD00000237B614FF4A053BB614FF48053FB611E
:103FE00007F10C030521184600F0F0FF0346002BF3
:103FF00001D000F0BBF900BF5037BD4680BD00BF07
:10400000003802400070004080B58CB000AF07F16E
:104010001C0300221A605A609A60DA601A61002359
:10402000BB61A24B1B6BA14A43F0100313639F4B70
:104030001B6B03F01003BB61BB6900237B619B4BCF
:104040001B6B9A4A43F004031363984B1B6B03F0FA
:1040500004037B617B6900233B61944B1B6B934A98
:1040600043F080031363914B1B6B03F080033B61B0
:104070003B690023FB608D4B1B6B8C4A43F00103B3
:1040800013638A4B1B6B03F00103FB60FB68002387
:10409000BB60864B1B6B854A43F002031363834B63
:1040A0001B6B03F00203BB60BB6800237B607F4B8C
:1040B0001B6B7E4A43F0080313637C4B1B6B03F0BE
:1040C00008037B607B6800220821794800F0D2FC5D
:1040D00001220121774800F0CDFC00224FF21001AF
:1040E000754800F0C7FC0823FB6101233B620023F5
:1040F0007B620023BB6207F11C0319466C4800F089
:104100001DFB0123FB6101233B6200237B62002333
:10411000BB6207F11C031946664800F00FFB082339
:10412000FB6102233B6200237B620023BB62052309
:10413000FB6207F11C0319465E4800F0FFFA0123F9
:10414000FB614FF488133B6200237B6207F11C0381
:1041500019465A4800F0F2FA1023FB6102233B6231
:1041600000237B620023BB620623FB6207F11C0372
:104170001946524800F0E2FAE023FB6102233B6259
:1041800000237B620023BB620523FB6207F11C0353
:1041900019464A4800F0D2FA0423FB6100233B622F
:1041A00000237B6207F11C031946454800F0C6FA5C
:1041B0004FF48063FB6102233B6200237B62002398
:1041C000BB620523FB6207F11C0319463C4800F063
:1041D000B5FA4FF21003FB6101233B6200237B62BF
:1041E0000023BB6207F11C031946334800F0A6FA0E
:1041F0004FF4A453FB6102233B6200237B62002344
:10420000BB620623FB6207F11C031946294800F034
:1042100095FA4FF40073FB6100233B6200237B623D
:1042200007F11C031946254800F088FA4FF4E053C3
:10423000FB6102233B6200237B620023BB620A23F3
:10424000FB6207F11C0319461C4800F077FA202393
:10425000FB6100233B6200237B6207F11C031946CC
:10426000154800F06BFA4FF41073FB6112233B62A8
:1042700000237B620023BB620423FB6207F11C0363
:1042800019460F4800F05AFA0223FB614FF49013CD
:104290003B6200237B6207F11C031946044800F0CF
:1042A0004DFA00BF3037BD4680BD00BF0038024028
:1042B0000010024000080240000C024000000240D2
:1042C0000004024080B582B000AF78600648FFF776
:1042D0001FFD4FF48051054800F0E5FB4FF47A7064
:1042E00001F0A2FBF2E700BF245C0008000C0240D2
:1042F00080B582B000AF78600648FFF709FD4FF443
:104300000051054800F0CFFB4FF4487001F08CFBE2
:10431000F2E700BF385C0008000C024080B582B0B4
:1043200000AF78600648FFF7F3FC4FF48041054882
:1043300000F0B9FB4FF4C87001F076FBF2E700BF64
:104340004C5C0008000C024080B582B000AF786081
:104350007B681B68044A934201D101F045FB00BF12
:104360000837BD4680BD00BF0010004080B400AFDC
:1043700072B600BFFEE7000080B582B000AF002338
:104380007B60104B5B6C0F4A43F4804353640D4BCE
:104390005B6C03F480437B607B6800233B60094BCC
:1043A0001B6C084A43F080531364064B1B6C03F0EC
:1043B00080533B603B68FCF77FFA00BF0837BD467F
:1043C00080BD00BF0038024080B58EB000AF78607D
:1043D0000023FB620023BB620023FB60334B1B6C9A
:1043E000324A43F010031364304B1B6C03F010038C
:1043F000FB60FB6807F1100207F114031146184631
:1044000000F0F0FF3B6AFB62FB6A002B03D100F077
:10441000D5FF786304E000F0D1FF03465B007B63C7
:104420007B6B234AA2FB03239B0C013BBB62214B0A
:10443000214A1A601F4B40F2E732DA601D4ABB6A1C
:1044400053601C4B00221A611A4B00229A60194BD0
:1044500000229A61174801F00BF8034687F83330C1
:1044600097F83330002B1BD1124801F05BF803465C
:1044700087F8333097F83330002B11D1362000F015
:104480004FF97B680F2B08D800227968362000F09E
:104490002BF90A4A7B68136002E0012387F8333066
:1044A00097F8333018463837BD4680BD0038024093
:1044B00083DE1B43E4430120001000401400002071
:1044C00080B400AFFEE780B400AFFEE780B400AF79
:1044D000FEE780B400AFFEE780B400AFFEE780B433
:1044E00000AF00BFBD465DF8047B704780B500AFEC
:1044F000024801F087F800BF80BD00BFE4430120FF
:1045000080B400AF064BD3F88830054A43F47003FB
:10451000C2F8883000BFBD465DF8047B704700BF1D
:1045200000ED00E0DFF834D00D480E490E4A0023BC
:1045300002E0D458C4500433C4188C42F9D30B4A57
:104540000B4C002301E013600432A242FBD3FFF7BF
:10455000D7FF01F08DFAFFF779FC704700000220C9
:10456000000000201C000020B05C00081C0000209F
:1045700030440120FEE7000080B485B000AF7860D1
:104580007B6803F00703FB600C4BDB68BB60BA6819
:104590004FF6FF031340BB60FB681A02BB6813436E
:1045A00043F0BF6343F40033BB60044ABB68D3608D
:1045B00000BF1437BD465DF8047B704700ED00E096
:1045C00080B400AF044BDB681B0A03F007031846F6
:1045D000BD465DF8047B704700ED00E080B483B019
:1045E00000AF0346FB7197F90730002B0BDBFB791B
:1045F00003F01F02074997F907305B09012000FA11
:1046000002F241F8232000BF0C37BD465DF8047B61
:10461000704700BF00E100E080B483B000AF034604
:104620003960FB7197F90730002B0ADB3B68DAB27F
:104630000C4997F907301201D2B20B4483F80023DA
:104640000AE03B68DAB20849FB7903F00F03043B48
:104650001201D2B20B441A7600BF0C37BD465DF88A
:10466000047B704700E100E000ED00E080B489B019
:1046700000AFF860B9607A60FB6803F00703FB6184
:10468000FB69C3F10703042B28BF0423BB61FB694B
:104690000433062B02D9FB69033B00E000237B6156
:1046A0004FF0FF32BB6902FA03F3DA43BB681A40EA
:1046B0007B699A404FF0FF317B6901FA03F3D943DC
:1046C0007B680B40134318462437BD465DF8047BD6
:1046D000704780B582B000AF78607868FFF74CFF14
:1046E00000BF0837BD4680BD80B586B000AF034629
:1046F000B9607A60FB7300237B61FFF761FF78612B
:104700007A68B9687869FFF7B1FF024697F90F3008
:1047100011461846FFF780FF00BF1837BD4680BD21
:1047200080B582B000AF0346FB7197F90730184699
:10473000FFF754FF00BF0837BD4680BD80B489B085
:1047400000AF7860396000237B6100233B61002368
:10475000BB610023FB616BE10122FB6902FA03F3F9
:104760007B613B681B687A6913403B613A697B69EE
:104770009A4240F05A813B685B6803F00303012BC7
:1047800005D03B685B6803F00303022B30D17B68E4
:104790009B68BB61FB695B00032202FA03F3DB4306
:1047A000BA691340BB613B68DA68FB695B0002FAD7
:1047B00003F3BA691343BB617B68BA699A607B688B
:1047C0005B68BB610122FB6902FA03F3DB43BA6950
:1047D0001340BB613B685B681B0903F00102FB6986
:1047E00002FA03F3BA691343BB617B68BA695A6082
:1047F0003B685B6803F00303032B17D07B68DB681F
:10480000BB61FB695B00032202FA03F3DB43BA6975
:104810001340BB613B689A68FB695B0002FA03F3D3
:10482000BA691343BB617B68BA69DA603B685B684D
:1048300003F00303022B23D1FB69DA087B680832FB
:1048400053F82230BB61FB6903F007039B000F2282
:1048500002FA03F3DB43BA691340BB613B681A6990
:10486000FB6903F007039B0002FA03F3BA691343E1
:10487000BB61FB69DA087B680832B96943F822102A
:104880007B681B68BB61FB695B00032202FA03F3D0
:10489000DB43BA691340BB613B685B6803F003020A
:1048A000FB695B0002FA03F3BA691343BB617B68DF
:1048B000BA691A603B685B6803F44033002B00F070
:1048C000B4800023FB60604B5B6C5F4A43F4804321
:1048D00053645D4B5B6C03F48043FB60FB685B4A95
:1048E000FB699B08023352F82330BB61FB6903F07C
:1048F00003039B000F2202FA03F3DB43BA69134060
:10490000BB617B68524A93422BD07B68514A9342E9
:1049100025D07B68504A93421FD07B684F4A934210
:1049200019D07B684E4A934213D07B684D4A93421C
:104930000DD07B684C4A934207D07B684B4A934228
:1049400001D107230EE008230CE006230AE005232B
:1049500008E0042306E0032304E0022302E001232D
:1049600000E00023FA6902F0030292009340BA6962
:104970001343BB613549FB699B080233BA6941F8AF
:1049800023203B4B9B68BB613B69DB43BA69134007
:10499000BB613B685B6803F48013002B03D0BA69EA
:1049A0003B691343BB61324ABB699360304BDB68A0
:1049B000BB613B69DB43BA691340BB613B685B6821
:1049C00003F40013002B03D0BA693B691343BB61A6
:1049D000274ABB69D360264B5B68BB613B69DB43FD
:1049E000BA691340BB613B685B6803F40033002B7A
:1049F00003D0BA693B691343BB611D4ABB6953606D
:104A00001B4B1B68BB613B69DB43BA691340BB614D
:104A10003B685B6803F48033002B03D0BA693B69C1
:104A20001343BB61124ABB691360FB690133FB612D
:104A3000FB690F2B7FF690AE00BF00BF2437BD4649
:104A40005DF8047B704700BF003802400038014029
:104A5000000002400004024000080240000C024036
:104A6000001002400014024000180240001C0240E6
:104A7000003C014080B483B000AF78600B467B807F
:104A800013467B707B78002B03D07A887B689A6111
:104A900003E07B881A047B689A6100BF0C37BD462F
:104AA0005DF8047B704780B485B000AF78600B463A
:104AB0007B807B685B69FB607A88FB6813401A0423
:104AC000FB68D9437B880B401A437B689A6100BF1F
:104AD0001437BD465DF8047B7047000080B586B092
:104AE00000AF78607B68002B01D1012367E27B680F
:104AF0001B6803F00103002B75D0884B9B6803F003
:104B00000C03042B0CD0854B9B6803F00C03082B83
:104B100012D1824B5B6803F48003B3F5800F0BD195
:104B20007E4B1B6803F40033002B5BD07B685B6813
:104B3000002B57D1012342E27B685B68B3F5803FCD
:104B400006D1764B1B68754A43F4803313601DE031
:104B50007B685B68B3F5A02F0CD1704B1B686F4A64
:104B600043F4802313606D4B1B686C4A43F480331D
:104B700013600BE0694B1B68684A23F480331360B1
:104B8000664B1B68654A23F4802313607B685B686F
:104B9000002B13D000F03CFF386108E000F038FF34
:104BA00002463B69D31A642B01D9032307E25B4B0E
:104BB0001B6803F40033002BF0D014E000F028FF52
:104BC000386108E000F024FF02463B69D31A642BE9
:104BD00001D90323F3E1514B1B6803F40033002B8D
:104BE000F0D100E000BF7B681B6803F00203002BDC
:104BF00063D04A4B9B6803F00C03002B0BD0474B50
:104C00009B6803F00C03082B1CD1444B5B6803F436
:104C10008003002B16D1414B1B6803F00203002BCD
:104C200005D07B68DB68012B01D00123C7E13B4B3A
:104C30001B6823F0F8027B681B69DB0037491343CC
:104C40000B603AE07B68DB68002B20D0344B0122FC
:104C50001A6000F0DDFE386108E000F0D9FE02467F
:104C60003B69D31A022B01D90323A8E12B4B1B6804
:104C700003F00203002BF0D0284B1B6823F0F8024E
:104C80007B681B69DB00254913430B6015E0244B4F
:104C900000221A6000F0BCFE386108E000F0B8FEA7
:104CA00002463B69D31A022B01D9032387E11B4B30
:104CB0001B6803F00203002BF0D17B681B6803F034
:104CC0000803002B36D07B685B69002B16D0154B90
:104CD00001221A6000F09CFE386108E000F098FEA6
:104CE00002463B69D31A022B01D9032367E10B4B20
:104CF0005B6F03F00203002BF0D01BE0094B002296
:104D00001A6000F085FE38610EE000F081FE024678
:104D10003B69D31A022B07D9032350E10038024024
:104D200000004742800E4742884B5B6F03F002034E
:104D3000002BEAD17B681B6803F00403002B00F012
:104D400097800023FB75814B1B6C03F08053002B75
:104D50000FD10023BB607D4B1B6C7C4A43F080531A
:104D600013647A4B1B6C03F08053BB60BB68012358
:104D7000FB75774B1B6803F48073002B18D1744BC1
:104D80001B68734A43F48073136000F041FE38617E
:104D900008E000F03DFE02463B69D31A022B01D920
:104DA00003230CE16A4B1B6803F48073002BF0D0E3
:104DB0007B689B68012B06D1644B1B6F634A43F0F1
:104DC000010313671CE07B689B68052B0CD15F4BCC
:104DD0001B6F5E4A43F0040313675C4B1B6F5B4A17
:104DE00043F0010313670BE0584B1B6F574A23F046
:104DF00001031367554B1B6F544A23F004031367D9
:104E00007B689B68002B15D000F002FE38610AE039
:104E100000F0FEFD02463B69D31A41F2883293420C
:104E200001D90323CBE0494B1B6F03F00203002B96
:104E3000EED014E000F0ECFD38610AE000F0E8FD8F
:104E400002463B69D31A41F28832934201D90323C7
:104E5000B5E03E4B1B6F03F00203002BEED1FB7D50
:104E6000012B05D1394B1B6C384A23F08053136456
:104E70007B689B69002B00F0A180344B9B6803F09A
:104E80000C03082B5CD07B689B69022B41D1314B12
:104E900000221A6000F0BCFD386108E000F0B8FDA7
:104EA00002463B69D31A022B01D9032387E0274B23
:104EB0001B6803F00073002BF0D17B68DA697B6814
:104EC0001B6A1A437B685B6A9B011A437B689B6A77
:104ED0005B08013B1B041A437B68DB6A1B061B490A
:104EE00013434B601B4B01221A6000F091FD3861A7
:104EF00008E000F08DFD02463B69D31A022B01D970
:104F000003235CE0114B1B6803F00073002BF0D00F
:104F100054E0104B00221A6000F07AFD386108E07E
:104F200000F076FD02463B69D31A022B01D9032318
:104F300045E0064B1B6803F00073002BF0D13DE009
:104F40007B689B69012B07D1012338E000380240C0
:104F500000700040600047421B4B5B68FB607B6851
:104F60009B69012B28D0FB6803F480027B68DB6916
:104F70009A4221D1FB6803F03F027B681B6A9A4288
:104F80001AD1FA6847F6C07313407A68526A9201E0
:104F9000934211D1FB6803F440327B689B6A5B0843
:104FA000013B1B049A4207D1FB6803F070627B68E7
:104FB000DB6A1B069A4201D0012300E00023184659
:104FC0001837BD4680BD00BF0038024080B584B0B0
:104FD00000AF786039607B68002B01D10123CCE001
:104FE000684B1B6803F007033A689A420CD9654B7B
:104FF0003A68D2B21A70634B1B6803F007033A6831
:105000009A4201D00123B8E07B681B6803F00203D9
:10501000002B20D07B681B6803F00403002B05D015
:10502000594B9B68584A43F4E05393607B681B6874
:1050300003F00803002B05D0534B9B68524A43F4FE
:1050400060439360504B9B6823F0F0027B689B6841
:105050004D4913438B607B681B6803F00103002BF1
:1050600044D07B685B68012B07D1474B1B6803F476
:105070000033002B19D101237FE07B685B68022B92
:1050800003D07B685B68032B07D13F4B1B6803F0A1
:105090000073002B09D101236FE03B4B1B6803F029
:1050A0000203002B01D1012367E0374B9B6823F0FB
:1050B00003027B685B68344913438B6000F0A8FCF3
:1050C000F8600AE000F0A4FC0246FB68D31A41F243
:1050D0008832934201D903234FE02B4B9B6803F0A6
:1050E0000C027B685B689B009A42EBD1254B1B68E6
:1050F00003F007033A689A420CD2224B3A68D2B2C4
:105100001A70204B1B6803F007033A689A4201D0DB
:10511000012332E07B681B6803F00403002B08D0F6
:10512000194B9B6823F4E0527B68DB6816491343F4
:105130008B607B681B6803F00803002B09D0124BBF
:105140009B6823F460427B681B69DB000E491343B4
:105150008B6000F021F802460B4B9B681B0903F0A3
:105160000F030A49CB5C22FA03F3094A1360094B87
:105170001B681846FFF728F9002318461037BD466C
:1051800080BD00BF003C024000380240885C00083F
:1051900010000020140000202DE9B04F94B000AFA3
:1051A00000237B640023FB6400233B640023BB6477
:1051B000794B9B6803F00C03082B0DD0082B00F2F1
:1051C000E180002B02D0042B03D0DBE0734BBB64E7
:1051D000DBE0734BBB64D8E06F4B5B6803F03F03CD
:1051E0007B646D4B5B6803F48003002B63D06A4BD8
:1051F0005B689B090022BB63FA63BB6BC3F30803C4
:105200003B6300237B63D7E90C4522462B464FF0D6
:1052100000004FF00001590141EAD26150010246FD
:105220000B462146511A3961294663EB01037B6124
:105230004FF000024FF00003D7E904AB59468B0151
:10524000514643EA916351468A015146B2EB010847
:10525000594663EB01094FF000024FF000034FEA9B
:10526000C90343EA58734FEAC80290469946234659
:1052700018EB0303BB602B4649EB0303FB604FF0C5
:1052800000024FF00003D7E9024529464B022146B0
:1052900043EAD15321464A02104619467B6C00224C
:1052A000BB62FA62D7E90A23FAF7DCFF02460B4633
:1052B0001346FB6458E0384B5B689B090022184694
:1052C0001146C0F308033B6200237B62D7E90889DB
:1052D00042464B464FF000004FF00001590141EAB1
:1052E000D261500102460B464146B2EB010A4946E3
:1052F00063EB010B4FF000024FF000034FEA8B13FA
:1053000043EA9A634FEA8A12B2EB0A0463EB0B0595
:105310004FF000024FF00003EB0043EA5473E20049
:1053200014461D464346E3183B604B4645EB0303DA
:105330007B604FF000024FF00003D7E9004529469B
:105340008B02214643EA915321468A0210461946B0
:105350007B6C0022BB61FA61D7E90623FAF782FF72
:1053600002460B461346FB640B4B5B681B0C03F0B9
:10537000030301335B003B64FA6C3B6CB2FBF3F359
:10538000BB6402E0054BBB6400BFBB6C18465037E2
:10539000BD46BDE8B08F00BF003802400024F400D5
:1053A00000127A0080B400AF034B1B681846BD465C
:1053B0005DF8047B704700BF1000002080B500AF8F
:1053C000FFF7F0FF0246054B9B689B0A03F00703BB
:1053D0000349CB5C22FA03F3184680BD0038024033
:1053E000985C000880B483B000AF786039607B6857
:1053F0000F221A60124B9B6803F003027B685A600D
:105400000F4B9B6803F0F0027B689A600C4B9B6823
:1054100003F4E0527B68DA60094B9B68DB0803F415
:10542000E0527B681A61074B1B6803F007023B6878
:105430001A6000BF0C37BD465DF8047B704700BFA3
:1054400000380240003C024080B483B000AF786076
:1054500000BF0C37BD465DF8047B704780B483B055
:1054600000AF786000BF0C37BD465DF8047B704725
:1054700080B582B000AF78607B68002B01D101233A
:1054800041E07B6893F83D30DBB2002B06D17B68AE
:10549000002283F83C20786800F039F87B6802220B
:1054A00083F83D207B681A687B68043319461046F0
:1054B00000F0D8F97B68012283F846207B6801223E
:1054C00083F83E207B68012283F83F207B6801221D
:1054D00083F840207B68012283F841207B68012209
:1054E00083F842207B68012283F843207B680122F5
:1054F00083F844207B68012283F845207B680122E1
:1055000083F83D20002318460837BD4680BD80B48F
:1055100083B000AF786000BF0C37BD465DF8047BF8
:105520007047000080B485B000AF78607B6893F866
:105530003D30DBB2012B01D001234EE07B6802221B
:1055400083F83D207B681B68DA687B681B6842F043
:105550000102DA607B681B68234A934222D07B6891
:105560001B68B3F1804F1DD07B681B681F4A9342B4
:1055700018D07B681B681E4A934213D07B681B6857
:105580001C4A93420ED07B681B681B4A934209D089
:105590007B681B68194A934204D07B681B68184AD1
:1055A000934211D17B681B689B6803F00703FB6083
:1055B000FB68062B10D07B681B681A687B681B6829
:1055C00042F001021A6007E07B681B681A687B687A
:1055D0001B6842F001021A60002318461437BD46CA
:1055E0005DF8047B704700BF0000014000040040EC
:1055F00000080040000C0040000401400040014051
:105600000018004080B582B000AF78607B681B68EE
:105610001B6903F00203022B22D17B681B68DB6845
:1056200003F00203022B1BD17B681B686FF00202A0
:105630001A617B6801221A777B681B689B6903F0FB
:105640000303002B03D0786800F0EEF805E07868DB
:1056500000F0E0F8786800F0F1F87B6800221A7733
:105660007B681B681B6903F00403042B22D17B6851
:105670001B68DB6803F00403042B1BD17B681B68E9
:105680006FF004021A617B6802221A777B681B683C
:105690009B6903F44073002B03D0786800F0C4F8D2
:1056A00005E0786800F0B6F8786800F0C7F87B6825
:1056B00000221A777B681B681B6903F00803082B1C
:1056C00022D17B681B68DB6803F00803082B1BD121
:1056D0007B681B686FF008021A617B6804221A77E6
:1056E0007B681B68DB6903F00303002B03D0786839
:1056F00000F09AF805E0786800F08CF8786800F01F
:105700009DF87B6800221A777B681B681B6903F091
:105710001003102B22D17B681B68DB6803F0100399
:10572000102B1BD17B681B686FF010021A617B681D
:1057300008221A777B681B68DB6903F44073002B2F
:1057400003D0786800F070F805E0786800F062F83F
:10575000786800F073F87B6800221A777B681B6812
:105760001B6903F00103012B0ED17B681B68DB680A
:1057700003F00103012B07D17B681B686FF0010266
:105780001A617868FEF7E0FD7B681B681B6903F00F
:105790008003802B0ED17B681B68DB6803F08003DD
:1057A000802B07D17B681B686FF080021A617868D4
:1057B000FFF754FE7B681B681B6903F04003402B16
:1057C0000ED17B681B68DB6803F04003402B07D1D8
:1057D0007B681B686FF040021A61786800F038F847
:1057E0007B681B681B6903F02003202B0ED17B68AC
:1057F0001B68DB6803F02003202B07D17B681B6844
:105800006FF020021A617868FFF71EFE00BF0837AC
:10581000BD4680BD80B483B000AF786000BF0C3758
:10582000BD465DF8047B704780B483B000AF7860FC
:1058300000BF0C37BD465DF8047B704780B483B071
:1058400000AF786000BF0C37BD465DF8047B704741
:1058500080B483B000AF786000BF0C37BD465DF800
:10586000047B704780B485B000AF786039607B6896
:105870001B68FB607B68404A934213D07B68B3F19E
:10588000804F0FD07B683D4A93420BD07B683C4AE7
:10589000934207D07B683B4A934203D07B683A4AE5
:1058A000934208D1FB6823F07003FB603B685B68A0
:1058B000FA681343FB607B682F4A93422BD07B68C6
:1058C000B3F1804F27D07B682C4A934223D07B686A
:1058D0002B4A93421FD07B682A4A93421BD07B6895
:1058E000294A934217D07B68284A934213D07B6899
:1058F000274A93420FD07B68264A93420BD07B689D
:10590000254A934207D07B68244A934203D07B68A0
:10591000234A934208D1FB6823F44073FB603B6841
:10592000DB68FA681343FB60FB6823F080023B6886
:105930005B691343FB607B68FA681A603B689A688E
:105940007B68DA623B681A687B689A627B680A4AFD
:10595000934203D07B680C4A934203D13B681A6997
:105960007B681A637B6801225A6100BF1437BD4609
:105970005DF8047B704700BF000001400004004058
:1059800000080040000C00400004014000400140BD
:10599000004401400048014000180040001C004045
:1059A0000020004080B500AF0E4B1B680D4A43F449
:1059B000007313600B4B1B680A4A43F48063136047
:1059C000084B1B68074A43F4807313600320FEF7FB
:1059D00080FE0020FEF7F8FCFEF7CEFC0023184600
:1059E00080BD00BF003C024080B400AF064B1B7876
:1059F0001A46064B1B681344044A136000BFBD4699
:105A00005DF8047B704700BF180000202C44012083
:105A100080B400AF034B1B681846BD465DF8047B9D
:105A2000704700BF2C44012080B584B000AF78607F
:105A3000FFF7EEFFB8607B68FB60FB68B3F1FF3FE8
:105A400005D00A4B1B781A46FB681344FB6000BF65
:105A5000FFF7DEFF0246BB68D31AFA689A42F7D80E
:105A600000BF00BF1037BD4680BD00BF180000203A
:105A700070B50D4D0D4C641BA4100026A64209D133
:105A80000B4D0C4C00F03EF8641BA4100026A642FF
:105A900005D170BD55F8043B98470136EEE755F83F
:105AA000043B98470136F2E7A85C0008A85C0008B0
:105AB000A85C0008AC5C000810B5013902449042B3
:105AC00001D1002005E0037811F8014FA34201D075
:105AD000181B10BD0130F2E70A44914200F1FF3378
